{
  "contractName": "AsToken",
  "abi": [
    {
      "inputs": [],
      "payable": false,
      "stateMutability": "nonpayable",
      "type": "constructor"
    },
    {
      "constant": true,
      "inputs": [],
      "name": "totalSupply",
      "outputs": [
        {
          "internalType": "uint256",
          "name": "",
          "type": "uint256"
        }
      ],
      "payable": false,
      "stateMutability": "view",
      "type": "function"
    }
  ],
  "bytecode": "0x6080604052348015600f57600080fd5b50620f42406000819055506084806100286000396000f3fe6080604052348015600f57600080fd5b506004361060285760003560e01c806318160ddd14602d575b600080fd5b60336049565b6040518082815260200191505060405180910390f35b6000548156fea265627a7a72315820ae0d3eca7d47048762609be31a43f695d95dead042a2e88a1ab168b92c2350ce64736f6c63430005100032",
  "source": "\r\npragma solidity^0.5.16;\r\n\r\ncontract AsToken \r\n{\r\n   \r\n   uint256 public totalSupply;\r\n    constructor() public\r\n    {\r\n         totalSupply=1000000;\r\n    }\r\n\r\n}",
  "sourcePath": "C:/Users/151220/Eth_swap/starter_kit/src/contracts/AsToken.sol",
  "compiler": {
    "name": "solc",
    "version": "0.5.16+commit.9c3226ce.Emscripten.clang"
  },
  "schemaVersion": "3.4.1",
  "updatedAt": "2021-06-16T06:50:43.976Z",
  "networkType": "ethereum",
  "devdoc": {
    "methods": {}
  },
  "userdoc": {
    "methods": {}
  }
}